:0C0000000C9434000C9400000C940000E0
:10000C000C9400000C9400000C9400000C94000064
:10001C000C9400000C9400000C9400000C94000054
:10002C000C9400000C9400000C9400000C94000044
:10003C000C9400000C9400000C9400000C94000034
:10004C000C9400000C9400000C9400000C94000024
:10005C000C9400000C9400000C940000F894EE2713
:10006C00EFBBF1E0F5BFE5BF8DE0A2E0BB27ED9360
:10007C008A95E9F780E098E0A0E0B1E0ED93019774
:10008C00E9F7E0E0EEBBEFEFEDBFE8E0EEBFC0E07C
:10009C00D3E00C94D100AA93E881E064E0937C0057
:1000AC008BE18A95F1F7E0917A00E064E0937A00B5
:1000BC00E0917A00E071E1F3E0917A00E061E09385
:1000CC007A00E0917800F0917900219608950E94D1
:1000DC008C0220E030E02430E0E03E0748F500E000
:1000EC0010E00530E0E01E0770F49BD018F49FD0B0
:1000FC00E12905C096D020F09AD0E095E121EBB92A
:10010C000F5F1F4FEECFE0E0E03049F0E03039F008
:10011C00E03029F0E03019F0E1E0E03009F401C002
:10012C0007C08BD090D0E129E5B92F5F3F4FD3CFDB
:10013C0024E030E02730E0E03E0748F500E010E036
:10014C000530E0E01E0770F46CD018F070D0E12997
:10015C0005C067D020F46BD0E095E121EBB90F5FBF
:10016C001F4FEECFE0E0E03049F0E03039F0E03006
:10017C0029F0E03019F0E1E0E03009F401C007C0EB
:10018C005CD061D0E129E5B92F5F3F4FD3CF0E94FE
:10019C009102249608952497E0E8E0936100E0E052
:1001AC00E0936100EFE1EAB9EFE7E4B9E3E2E4BD23
:1001BC00E5E0E5BDE0E0E6BDE7BDE8BDEFE3E093DB
:1001CC007E00E0E4E0937C00E3E8E0937A00E0E07A
:1001DC00E0937B00559A7BDFA5E05DDF66277727F0
:1001EC000E94A101AAEEB4E084EB9DE30E942402DC
:1001FC00A0E0B0E084E392E40E94D4010E94870264
:10020C00ABE9B5E58FE99DE30E942402A0E0B0E0E4
:10021C0088E091E40E94D4010E946801E8BDDBCF24
:10022C00FFCFA02F38DFE030A2E0FA0708951BB013
:10023C00E02FA1E00E947A02089515B0E22FA1E010
:10024C000E947A020895E095E121E5B9A1E0B0E0C1
:10025C000E943101F2CF109639F080ED97E00197B2
:10026C00F1F7A8951197C9F70895552342F4503822
:10027C0011F4E0FF04C03196691F791F6BF050E850
:10028C00572711F45F93C8C05F3F31F0660F000C25
:10029C0057956795752F08955F9300200AF0C8C095
:1002AC00C1C050E8192E1522880F991F9527550F9C
:1002BC00879550E8072E0522660F771F7527550F77
:1002CC0067950895689401C0E8945F93F2DF7038E5
:1002DC0018F07F3F08F4A0C056E1571BAAF45195C3
:1002EC0058300EF4593030F0EFEFFFEF6FEF7FE73F
:1002FC0077F91AC077275523B9F0EE0FFF1F661F49
:10030C00771F5A95D1F710C07727583028F0EF2F68
:10031C00F62F672F5850F9CF552331F07695679506
:10032C00F795E7955A95D1F700200AF4D5D05F914F
:10033C000895689401C0E894309760407040B1F023
:10034C00002426F0772312F40094C6D0172E7EE1F9
:10035C00112032F07A95EE0FFF1F661F111CF9CF9A
:10036C00EF2FF62F612D5F938ADF5F9108954F93E6
:10037C00AF01FD01DA01AB01BC01CA01402D012C1A
:10038C00142E4F910895EA0FFB1F681F0895E095F6
:10039C00F0956095EF5FFF4F6F4F08955F9381DF8E
:1003AC00903839F1703821F1572F591B2BF112F479
:1003BC00DEDFFACF583118F0AA27BB278827583030
:1003CC0028F0AB2FB82F88275850F9CF552329F098
:1003DC008695B795A7955A95D9F7502D512572F05A
:1003EC00D2DF38F46795F795E795739513F420C031
:1003FC00BEDF45DF5F910895D8F7FBCFEA1BFB0BFF
:10040C00680B51F010F40094C2DF662392F3EE0FE8
:10041C00FF1F661F7A95CBF7EE27FF2766277727F6
:10042C005F910895EFEFFFEF6FE77FEF5F91089516
:10043C00EFEFFFEF6FE77FE75F9108955F9331DF99
:10044C00703851F3903841F301240894791F23F448
:10045C001CF300203AF3ECCF0F921F932F933F9392
:10046C004F93112722279927689FA0018F9F302D2A
:10047C00410D591F6B9F300D411D591F8E9F27D069
:10048C00BF9F25D06A9F23D0BE9F1DD0AF9F1BD08E
:10049C00AE9F110D291F391F491F591FE32FF42F30
:1004AC00652F522F4F913F912F911F910F906623E3
:1004BC002AF0550FEE1FFF1F661F02C073954BF2FB
:1004CC00D4DE5F910895100D211D391F02C0200D3F
:1004DC00311D491F591F0895F09560957095E19550
:1004EC00FF4F6F4F7F4F0895EE230E2EEA2F19F01A
:1004FC00EE0F0A94E9F708956F2F660F660B762FAF
:10050C000895E883F9836A837B8308953A932A9349
:10051C001A930A9308953B812A81198108810895C1
:00000001FF
